{
  "address": "0xe598cA3555A03220f20F0c03cac456aC20c0B396",
  "abi": [
    {
      "inputs": [
        {
          "internalType": "bytes32",
          "name": "gasLine",
          "type": "bytes32"
        },
        {
          "internalType": "uint256",
          "name": "enteranceFee",
          "type": "uint256"
        },
        {
          "internalType": "uint64",
          "name": "subId",
          "type": "uint64"
        },
        {
          "internalType": "address",
          "name": "vrfCoordinatorV2",
          "type": "address"
        },
        {
          "internalType": "uint32",
          "name": "callbackGasLimit",
          "type": "uint32"
        },
        {
          "internalType": "uint256",
          "name": "interval",
          "type": "uint256"
        }
      ],
      "stateMutability": "nonpayable",
      "type": "constructor"
    },
    {
      "inputs": [
        {
          "internalType": "address",
          "name": "have",
          "type": "address"
        },
        {
          "internalType": "address",
          "name": "want",
          "type": "address"
        }
      ],
      "name": "OnlyCoordinatorCanFulfill",
      "type": "error"
    },
    {
      "inputs": [],
      "name": "Raffle__RaffleNotOpen",
      "type": "error"
    },
    {
      "inputs": [],
      "name": "Raffle__SendMoreEnterRaffle",
      "type": "error"
    },
    {
      "inputs": [],
      "name": "Raffle__TransferFailed",
      "type": "error"
    },
    {
      "inputs": [
        {
          "internalType": "uint256",
          "name": "currentBalance",
          "type": "uint256"
        },
        {
          "internalType": "uint256",
          "name": "playersCount",
          "type": "uint256"
        },
        {
          "internalType": "uint256",
          "name": "raffleState",
          "type": "uint256"
        }
      ],
      "name": "Raffle__UpkeepNotNeeded",
      "type": "error"
    },
    {
      "anonymous": false,
      "inputs": [
        {
          "indexed": true,
          "internalType": "address",
          "name": "player",
          "type": "address"
        }
      ],
      "name": "RaffleEnter",
      "type": "event"
    },
    {
      "anonymous": false,
      "inputs": [
        {
          "indexed": true,
          "internalType": "uint256",
          "name": "requestId",
          "type": "uint256"
        }
      ],
      "name": "RequestedRaffleWinner",
      "type": "event"
    },
    {
      "anonymous": false,
      "inputs": [
        {
          "indexed": true,
          "internalType": "address",
          "name": "player",
          "type": "address"
        }
      ],
      "name": "WinnerPicked",
      "type": "event"
    },
    {
      "inputs": [
        {
          "internalType": "bytes",
          "name": "",
          "type": "bytes"
        }
      ],
      "name": "checkUpkeep",
      "outputs": [
        {
          "internalType": "bool",
          "name": "unkeepNeeded",
          "type": "bool"
        },
        {
          "internalType": "bytes",
          "name": "",
          "type": "bytes"
        }
      ],
      "stateMutability": "view",
      "type": "function"
    },
    {
      "inputs": [],
      "name": "enterRaffle",
      "outputs": [],
      "stateMutability": "payable",
      "type": "function"
    },
    {
      "inputs": [],
      "name": "getEntranceFee",
      "outputs": [
        {
          "internalType": "uint256",
          "name": "",
          "type": "uint256"
        }
      ],
      "stateMutability": "view",
      "type": "function"
    },
    {
      "inputs": [],
      "name": "getInterval",
      "outputs": [
        {
          "internalType": "uint256",
          "name": "",
          "type": "uint256"
        }
      ],
      "stateMutability": "view",
      "type": "function"
    },
    {
      "inputs": [],
      "name": "getLastTimeStamp",
      "outputs": [
        {
          "internalType": "uint256",
          "name": "",
          "type": "uint256"
        }
      ],
      "stateMutability": "view",
      "type": "function"
    },
    {
      "inputs": [],
      "name": "getNumWords",
      "outputs": [
        {
          "internalType": "uint16",
          "name": "",
          "type": "uint16"
        }
      ],
      "stateMutability": "pure",
      "type": "function"
    },
    {
      "inputs": [],
      "name": "getNumberOfPlayers",
      "outputs": [
        {
          "internalType": "uint256",
          "name": "",
          "type": "uint256"
        }
      ],
      "stateMutability": "view",
      "type": "function"
    },
    {
      "inputs": [
        {
          "internalType": "uint256",
          "name": "index",
          "type": "uint256"
        }
      ],
      "name": "getPlayer",
      "outputs": [
        {
          "internalType": "address",
          "name": "",
          "type": "address"
        }
      ],
      "stateMutability": "view",
      "type": "function"
    },
    {
      "inputs": [],
      "name": "getRaffleState",
      "outputs": [
        {
          "internalType": "enum Raffle.RaffleState",
          "name": "",
          "type": "uint8"
        }
      ],
      "stateMutability": "view",
      "type": "function"
    },
    {
      "inputs": [],
      "name": "getReqConfirmactions",
      "outputs": [
        {
          "internalType": "uint16",
          "name": "",
          "type": "uint16"
        }
      ],
      "stateMutability": "pure",
      "type": "function"
    },
    {
      "inputs": [],
      "name": "getWinner",
      "outputs": [
        {
          "internalType": "address",
          "name": "",
          "type": "address"
        }
      ],
      "stateMutability": "view",
      "type": "function"
    },
    {
      "inputs": [
        {
          "internalType": "bytes",
          "name": "",
          "type": "bytes"
        }
      ],
      "name": "performUpkeep",
      "outputs": [],
      "stateMutability": "nonpayable",
      "type": "function"
    },
    {
      "inputs": [
        {
          "internalType": "uint256",
          "name": "requestId",
          "type": "uint256"
        },
        {
          "internalType": "uint256[]",
          "name": "randomWords",
          "type": "uint256[]"
        }
      ],
      "name": "rawFulfillRandomWords",
      "outputs": [],
      "stateMutability": "nonpayable",
      "type": "function"
    }
  ],
  "transactionHash": "0x494f0622d7fc49289a7b8513638191413e06d8f7547998a651bd0a2d1afa9202",
  "args": [
    "0x474e34a077df58807dbe9c96d3c009b23b3c6d0cce433e59bbf5b34f823bc56c",
    "10000000000000000",
    "6615",
    "0x8103B0A8A00be2DDC778e6e7eaa21791Cd364625",
    "500000",
    "30"
  ],
  "numDeployments": 1,
  "solcInputHash": "f5ff33735c6bdc9f30cd95565ce68f8e",
  "bytecode": "0x6101606040523480156200001257600080fd5b506040516200187338038062001873833981810160405281019062000038919062000294565b828073ffffffffffffffffffffffffffffffffffffffff1660808173ffffffffffffffffffffffffffffffffffffffff1681525050508273ffffffffffffffffffffffffffffffffffffffff1660a08173ffffffffffffffffffffffffffffffffffffffff16815250508461012081815250508560c081815250508367ffffffffffffffff1660e08167ffffffffffffffff16815250508163ffffffff166101008163ffffffff16815250508061014081815250506000600360006101000a81548160ff0219169083600181111562000116576200011562000330565b5b0217905550426002819055505050505050506200035f565b600080fd5b6000819050919050565b620001488162000133565b81146200015457600080fd5b50565b60008151905062000168816200013d565b92915050565b6000819050919050565b62000183816200016e565b81146200018f57600080fd5b50565b600081519050620001a38162000178565b92915050565b600067ffffffffffffffff82169050919050565b620001c881620001a9565b8114620001d457600080fd5b50565b600081519050620001e881620001bd565b92915050565b600073ffffffffffffffffffffffffffffffffffffffff82169050919050565b60006200021b82620001ee565b9050919050565b6200022d816200020e565b81146200023957600080fd5b50565b6000815190506200024d8162000222565b92915050565b600063ffffffff82169050919050565b6200026e8162000253565b81146200027a57600080fd5b50565b6000815190506200028e8162000263565b92915050565b60008060008060008060c08789031215620002b457620002b36200012e565b5b6000620002c489828a0162000157565b9650506020620002d789828a0162000192565b9550506040620002ea89828a01620001d7565b9450506060620002fd89828a016200023c565b93505060806200031089828a016200027d565b92505060a06200032389828a0162000192565b9150509295509295509295565b7f4e487b7100000000000000000000000000000000000000000000000000000000600052602160045260246000fd5b60805160a05160c05160e0516101005161012051610140516114a4620003cf600039600081816107a2015261085d0152600081816102fa01526103f70152600061069c01526000610679015260006106580152600061061c015260008181610337015261038b01526114a46000f3fe6080604052600436106100c25760003560e01c80636e04ff0d1161007f578063a714838011610059578063a714838014610238578063c1c244e814610263578063e55ae4e81461028e578063fd6673f5146102cb576100c2565b80636e04ff0d146101a45780638e7ea5b2146101e257806391ad27b41461020d576100c2565b806309bc33a7146100c7578063115cbaf5146100f25780631fe543e31461011d5780632cfcc539146101465780634585e33b1461015057806353a2c19a14610179575b600080fd5b3480156100d357600080fd5b506100dc6102f6565b6040516100e99190610bd8565b60405180910390f35b3480156100fe57600080fd5b5061010761031e565b6040516101149190610c6a565b60405180910390f35b34801561012957600080fd5b50610144600480360381019061013f9190610e1e565b610335565b005b61014e6103f5565b005b34801561015c57600080fd5b5061017760048036038101906101729190610ed5565b610564565b005b34801561018557600080fd5b5061018e610755565b60405161019b9190610f3f565b60405180910390f35b3480156101b057600080fd5b506101cb60048036038101906101c6919061100f565b61075e565b6040516101d99291906110f2565b60405180910390f35b3480156101ee57600080fd5b506101f761082f565b6040516102049190611163565b60405180910390f35b34801561021957600080fd5b50610222610859565b60405161022f9190610bd8565b60405180910390f35b34801561024457600080fd5b5061024d610881565b60405161025a9190610f3f565b60405180910390f35b34801561026f57600080fd5b5061027861088a565b6040516102859190610bd8565b60405180910390f35b34801561029a57600080fd5b506102b560048036038101906102b0919061117e565b610894565b6040516102c29190611163565b60405180910390f35b3480156102d757600080fd5b506102e06108db565b6040516102ed9190610bd8565b60405180910390f35b60007f0000000000000000000000000000000000000000000000000000000000000000905090565b6000600360009054906101000a900460ff16905090565b7f000000000000000000000000000000000000000000000000000000000000000073ffffffffffffffffffffffffffffffffffffffff163373ffffffffffffffffffffffffffffffffffffffff16146103e757337f00000000000000000000000000000000000000000000000000000000000000006040517f1cf993f40000000000000000000000000000000000000000000000000000000081526004016103de9291906111ab565b60405180910390fd5b6103f182826108e7565b5050565b7f000000000000000000000000000000000000000000000000000000000000000034101561044f576040517fd93ea15800000000000000000000000000000000000000000000000000000000815260040160405180910390fd5b6000600181111561046357610462610bf3565b5b600360009054906101000a900460ff16600181111561048557610484610bf3565b5b146104bc576040517fd24a271400000000000000000000000000000000000000000000000000000000815260040160405180910390fd5b6000339080600181540180825580915050600190039060005260206000200160009091909190916101000a81548173ffffffffffffffffffffffffffffffffffffffff021916908373ffffffffffffffffffffffffffffffffffffffff1602179055503373ffffffffffffffffffffffffffffffffffffffff167f0805e1d667bddb8a95f0f09880cf94f403fb596ce79928d9f29b74203ba284d460405160405180910390a2565b600061057e6040518060200160405280600081525061075e565b509050806105ed5747600080549050600360009054906101000a900460ff1660018111156105af576105ae610bf3565b5b6040517f584327aa0000000000000000000000000000000000000000000000000000000081526004016105e4939291906111d4565b60405180910390fd5b6001600360006101000a81548160ff0219169083600181111561061357610612610bf3565b5b021790555060007f000000000000000000000000000000000000000000000000000000000000000073ffffffffffffffffffffffffffffffffffffffff16635d3b1d307f00000000000000000000000000000000000000000000000000000000000000007f000000000000000000000000000000000000000000000000000000000000000060037f000000000000000000000000000000000000000000000000000000000000000060016040518663ffffffff1660e01b81526004016106dd9594939291906112a1565b6020604051808303816000875af11580156106fc573d6000803e3d6000fd5b505050506040513d601f19601f820116820180604052508101906107209190611309565b9050807fcd6e45c8998311cab7e9d4385596cac867e20a0587194b954fa3a731c93ce78b60405160405180910390a250505050565b60006001905090565b600060606000600181111561077657610775610bf3565b5b600360009054906101000a900460ff16600181111561079857610797610bf3565b5b1480156107d157507f0000000000000000000000000000000000000000000000000000000000000000600254426107cf9190611365565b115b80156107e1575060008080549050115b80156107ed5750600047115b9150816040518060400160405280600381526020017f307830000000000000000000000000000000000000000000000000000000000081525091509150915091565b6000600160009054906101000a900473ffffffffffffffffffffffffffffffffffffffff16905090565b60007f0000000000000000000000000000000000000000000000000000000000000000905090565b60006003905090565b6000600254905090565b60008082815481106108a9576108a8611399565b5b9060005260206000200160009054906101000a900473ffffffffffffffffffffffffffffffffffffffff169050919050565b60008080549050905090565b600080805490508260008151811061090257610901611399565b5b602002602001015161091491906113f7565b9050600080828154811061092b5761092a611399565b5b9060005260206000200160009054906101000a900473ffffffffffffffffffffffffffffffffffffffff16905080600160006101000a81548173ffffffffffffffffffffffffffffffffffffffff021916908373ffffffffffffffffffffffffffffffffffffffff160217905550600067ffffffffffffffff8111156109b4576109b3610cdb565b5b6040519080825280602002602001820160405280156109e25781602001602082028036833780820191505090505b50600090805190602001906109f8929190610b18565b506000600360006101000a81548160ff02191690836001811115610a1f57610a1e610bf3565b5b02179055504260028190555060008173ffffffffffffffffffffffffffffffffffffffff1647604051610a5190611459565b60006040518083038185875af1925050503d8060008114610a8e576040519150601f19603f3d011682016040523d82523d6000602084013e610a93565b606091505b5050905080610ace576040517fa1d04b3900000000000000000000000000000000000000000000000000000000815260040160405180910390fd5b8173ffffffffffffffffffffffffffffffffffffffff167f5b690ec4a06fe979403046eaeea5b3ce38524683c3001f662c8b5a829632f7df60405160405180910390a25050505050565b828054828255906000526020600020908101928215610b91579160200282015b82811115610b905782518260006101000a81548173ffffffffffffffffffffffffffffffffffffffff021916908373ffffffffffffffffffffffffffffffffffffffff16021790555091602001919060010190610b38565b5b509050610b9e9190610ba2565b5090565b5b80821115610bbb576000816000905550600101610ba3565b5090565b6000819050919050565b610bd281610bbf565b82525050565b6000602082019050610bed6000830184610bc9565b92915050565b7f4e487b7100000000000000000000000000000000000000000000000000000000600052602160045260246000fd5b60028110610c3357610c32610bf3565b5b50565b6000819050610c4482610c22565b919050565b6000610c5482610c36565b9050919050565b610c6481610c49565b82525050565b6000602082019050610c7f6000830184610c5b565b92915050565b6000604051905090565b600080fd5b600080fd5b610ca281610bbf565b8114610cad57600080fd5b50565b600081359050610cbf81610c99565b92915050565b600080fd5b6000601f19601f8301169050919050565b7f4e487b7100000000000000000000000000000000000000000000000000000000600052604160045260246000fd5b610d1382610cca565b810181811067ffffffffffffffff82111715610d3257610d31610cdb565b5b80604052505050565b6000610d45610c85565b9050610d518282610d0a565b919050565b600067ffffffffffffffff821115610d7157610d70610cdb565b5b602082029050602081019050919050565b600080fd5b6000610d9a610d9584610d56565b610d3b565b90508083825260208201905060208402830185811115610dbd57610dbc610d82565b5b835b81811015610de65780610dd28882610cb0565b845260208401935050602081019050610dbf565b5050509392505050565b600082601f830112610e0557610e04610cc5565b5b8135610e15848260208601610d87565b91505092915050565b60008060408385031215610e3557610e34610c8f565b5b6000610e4385828601610cb0565b925050602083013567ffffffffffffffff811115610e6457610e63610c94565b5b610e7085828601610df0565b9150509250929050565b600080fd5b60008083601f840112610e9557610e94610cc5565b5b8235905067ffffffffffffffff811115610eb257610eb1610e7a565b5b602083019150836001820283011115610ece57610ecd610d82565b5b9250929050565b60008060208385031215610eec57610eeb610c8f565b5b600083013567ffffffffffffffff811115610f0a57610f09610c94565b5b610f1685828601610e7f565b92509250509250929050565b600061ffff82169050919050565b610f3981610f22565b82525050565b6000602082019050610f546000830184610f30565b92915050565b600080fd5b600067ffffffffffffffff821115610f7a57610f79610cdb565b5b610f8382610cca565b9050602081019050919050565b82818337600083830152505050565b6000610fb2610fad84610f5f565b610d3b565b905082815260208101848484011115610fce57610fcd610f5a565b5b610fd9848285610f90565b509392505050565b600082601f830112610ff657610ff5610cc5565b5b8135611006848260208601610f9f565b91505092915050565b60006020828403121561102557611024610c8f565b5b600082013567ffffffffffffffff81111561104357611042610c94565b5b61104f84828501610fe1565b91505092915050565b60008115159050919050565b61106d81611058565b82525050565b600081519050919050565b600082825260208201905092915050565b60005b838110156110ad578082015181840152602081019050611092565b60008484015250505050565b60006110c482611073565b6110ce818561107e565b93506110de81856020860161108f565b6110e781610cca565b840191505092915050565b60006040820190506111076000830185611064565b818103602083015261111981846110b9565b90509392505050565b600073ffffffffffffffffffffffffffffffffffffffff82169050919050565b600061114d82611122565b9050919050565b61115d81611142565b82525050565b60006020820190506111786000830184611154565b92915050565b60006020828403121561119457611193610c8f565b5b60006111a284828501610cb0565b91505092915050565b60006040820190506111c06000830185611154565b6111cd6020830184611154565b9392505050565b60006060820190506111e96000830186610bc9565b6111f66020830185610bc9565b6112036040830184610bc9565b949350505050565b6000819050919050565b61121e8161120b565b82525050565b600067ffffffffffffffff82169050919050565b61124181611224565b82525050565b600063ffffffff82169050919050565b61126081611247565b82525050565b6000819050919050565b600061128b61128661128184610f22565b611266565b611247565b9050919050565b61129b81611270565b82525050565b600060a0820190506112b66000830188611215565b6112c36020830187611238565b6112d06040830186610f30565b6112dd6060830185611257565b6112ea6080830184611292565b9695505050505050565b60008151905061130381610c99565b92915050565b60006020828403121561131f5761131e610c8f565b5b600061132d848285016112f4565b91505092915050565b7f4e487b7100000000000000000000000000000000000000000000000000000000600052601160045260246000fd5b600061137082610bbf565b915061137b83610bbf565b925082820390508181111561139357611392611336565b5b92915050565b7f4e487b7100000000000000000000000000000000000000000000000000000000600052603260045260246000fd5b7f4e487b7100000000000000000000000000000000000000000000000000000000600052601260045260246000fd5b600061140282610bbf565b915061140d83610bbf565b92508261141d5761141c6113c8565b5b828206905092915050565b600081905092915050565b50565b6000611443600083611428565b915061144e82611433565b600082019050919050565b600061146482611436565b915081905091905056fea2646970667358221220cda2f3f97e93c5a391bd5f6ec73c3d05e3518b53714c64abb9bc511e202aa47164736f6c63430008130033",
  "devdoc": {
    "events": {
      "RaffleEnter(address)": {
        "params": {
          "player": ""
        }
      }
    },
    "kind": "dev",
    "methods": {
      "checkUpkeep(bytes)": {
        "details": "chainlink keeper "
      },
      "performUpkeep(bytes)": {
        "details": "chainlink keeper "
      }
    },
    "version": 1
  },
  "userdoc": {
    "events": {
      "RaffleEnter(address)": {
        "notice": ""
      }
    },
    "kind": "user",
    "methods": {
      "enterRaffle()": {
        "notice": ""
      }
    },
    "version": 1
  },
  "storageLayout": {
    "storage": [
      {
        "astId": 1178,
        "contract": "contracts/Raffle.sol:Raffle",
        "label": "s_players",
        "offset": 0,
        "slot": "0",
        "type": "t_array(t_address_payable)dyn_storage"
      },
      {
        "astId": 1180,
        "contract": "contracts/Raffle.sol:Raffle",
        "label": "s_recentWinner",
        "offset": 0,
        "slot": "1",
        "type": "t_address_payable"
      },
      {
        "astId": 1182,
        "contract": "contracts/Raffle.sol:Raffle",
        "label": "s_lastTimeStamp",
        "offset": 0,
        "slot": "2",
        "type": "t_uint256"
      },
      {
        "astId": 1185,
        "contract": "contracts/Raffle.sol:Raffle",
        "label": "s_raffleState",
        "offset": 0,
        "slot": "3",
        "type": "t_enum(RaffleState)1156"
      }
    ],
    "types": {
      "t_address_payable": {
        "encoding": "inplace",
        "label": "address payable",
        "numberOfBytes": "20"
      },
      "t_array(t_address_payable)dyn_storage": {
        "base": "t_address_payable",
        "encoding": "dynamic_array",
        "label": "address payable[]",
        "numberOfBytes": "32"
      },
      "t_enum(RaffleState)1156": {
        "encoding": "inplace",
        "label": "enum Raffle.RaffleState",
        "numberOfBytes": "1"
      },
      "t_uint256": {
        "encoding": "inplace",
        "label": "uint256",
        "numberOfBytes": "32"
      }
    }
  }
}